{
  "transactions": [
    {
      "hash": "0x05408fb78f95da5c51300d6969156994536c610dbe26d85b59aaff5e107ac4d3",
      "transactionType": "CALL",
      "contractName": null,
      "contractAddress": "0x8103b0a8a00be2ddc778e6e7eaa21791cd364625",
      "function": "createSubscription()",
      "arguments": [],
      "transaction": {
        "from": "0xe909c3c8ec96c25dc663b784040c4eb99276e801",
        "to": "0x8103b0a8a00be2ddc778e6e7eaa21791cd364625",
        "gas": "0x1558c",
        "value": "0x0",
        "input": "0xa21a23e4",
        "nonce": "0x10",
        "chainId": "0xaa36a7"
      },
      "additionalContracts": [],
      "isFixedGasLimit": false
    },
    {
      "hash": "0x3162c1f6df4fa0e2860e7938a8fa35802a6d67e7a9096772749a4b799ce982b9",
      "transactionType": "CALL",
      "contractName": "LinkToken",
      "contractAddress": "0x779877a7b0d9e8603169ddbd7836e478b4624789",
      "function": "transferAndCall(address,uint256,bytes)",
      "arguments": [
        "0x8103B0A8A00be2DDC778e6e7eaa21791Cd364625",
        "3000000000000000000",
        "0x0000000000000000000000000000000000000000000000000000000000002eba"
      ],
      "transaction": {
        "from": "0xe909c3c8ec96c25dc663b784040c4eb99276e801",
        "to": "0x779877a7b0d9e8603169ddbd7836e478b4624789",
        "gas": "0x1b43f",
        "value": "0x0",
        "input": "0x4000aea00000000000000000000000008103b0a8a00be2ddc778e6e7eaa21791cd36462500000000000000000000000000000000000000000000000029a2241af62c0000000000000000000000000000000000000000000000000000000000000000006000000000000000000000000000000000000000000000000000000000000000200000000000000000000000000000000000000000000000000000000000002eba",
        "nonce": "0x11",
        "chainId": "0xaa36a7"
      },
      "additionalContracts": [],
      "isFixedGasLimit": false
    },
    {
      "hash": "0x46f70233fd6058310533c7a8af038935fad6a33ed3a1b8edc8b16ff054666eb6",
      "transactionType": "CREATE",
      "contractName": "Raffle",
      "contractAddress": "0xa949dbe855c389b34263294384171b35d543fb2c",
      "function": null,
      "arguments": [
        "11962",
        "0x474e34a077df58807dbe9c96d3c009b23b3c6d0cce433e59bbf5b34f823bc56c",
        "30",
        "10000000000000000",
        "500000",
        "0x8103B0A8A00be2DDC778e6e7eaa21791Cd364625"
      ],
      "transaction": {
        "from": "0xe909c3c8ec96c25dc663b784040c4eb99276e801",
        "gas": "0xeb87d",
        "value": "0x0",
        "input": "0x61016060405234801561001157600080fd5b50604051610d8d380380610d8d833981016040819052610030916100b6565b6001600160a01b038116608081905260a05260c085905261014084905260e08690526101208390526002805460ff60a01b191690554260015563ffffffff8216610100524780156100aa57604051339082156108fc029083906000818181858888f193505050501580156100a8573d6000803e3d6000fd5b505b5050505050505061012c565b60008060008060008060c087890312156100cf57600080fd5b86516020880151604089015160608a015160808b01519399509197509550935063ffffffff8116811461010157600080fd5b60a08801519092506001600160a01b038116811461011e57600080fd5b809150509295509295509295565b60805160a05160c05160e051610100516101205161014051610bf361019a6000396000818161021101526105cf01526000818160d6015261030e015260006104e8015260006104b10152600061048b0152600061052601526000818161028a01526102cc0152610bf36000f3fe6080604052600436106100c25760003560e01c806353a2c19a1161007f57806391ad27b41161005957806391ad27b414610202578063c1c244e814610235578063e55ae4e81461024a578063fd6673f51461026a57600080fd5b806353a2c19a146101ac5780635f1b0fd8146101c05780636e04ff0d146101d457600080fd5b806309bc33a7146100c7578063115cbaf5146101095780631fe543e3146101305780632cfcc539146101525780634585e33b1461015a578063473f1ddc1461017a575b600080fd5b3480156100d357600080fd5b507f00000000000000000000000000000000000000000000000000000000000000005b6040519081526020015b60405180910390f35b34801561011557600080fd5b50600254600160a01b900460ff16604051610100919061089b565b34801561013c57600080fd5b5061015061014b36600461090a565b61027f565b005b61015061030c565b34801561016657600080fd5b506101506101753660046109c7565b6103f7565b34801561018657600080fd5b506002546001600160a01b03165b6040516001600160a01b039091168152602001610100565b3480156101b857600080fd5b5060016100f6565b3480156101cc57600080fd5b5060036100f6565b3480156101e057600080fd5b506101f46101ef366004610a3b565b6105c7565b604051610100929190610ad5565b34801561020e57600080fd5b507f00000000000000000000000000000000000000000000000000000000000000006100f6565b34801561024157600080fd5b506001546100f6565b34801561025657600080fd5b50610194610265366004610b2c565b610674565b34801561027657600080fd5b506000546100f6565b336001600160a01b037f000000000000000000000000000000000000000000000000000000000000000016146102fe5760405163073e64fd60e21b81523360048201526001600160a01b037f00000000000000000000000000000000000000000000000000000000000000001660248201526044015b60405180910390fd5b61030882826106a3565b5050565b7f000000000000000000000000000000000000000000000000000000000000000034101561034d5760405163181c600560e11b815260040160405180910390fd5b6000600254600160a01b900460ff16600181111561036d5761036d610885565b1461038b5760405163349289c560e21b815260040160405180910390fd5b600080546001810182558180527f290decd9548b62a8d60345a988386fc84ba6bc95484008f6362f93160ef3e5630180546001600160a01b0319163390811790915560405190917f0805e1d667bddb8a95f0f09880cf94f403fb596ce79928d9f29b74203ba284d491a2565b6000610411604051806020016040528060008152506105c7565b5090508061046757600054600254479190600160a01b900460ff16600181111561043d5761043d610885565b604051632c2193d560e11b81526004810193909352602483019190915260448201526064016102f5565b60028054600160a01b60ff60a01b199091161790556040516305d3b1d360e41b81527f000000000000000000000000000000000000000000000000000000000000000060048201527f000000000000000000000000000000000000000000000000000000000000000067ffffffffffffffff166024820152600360448201527f000000000000000000000000000000000000000000000000000000000000000063ffffffff166064820152600160848201526000906001600160a01b037f00000000000000000000000000000000000000000000000000000000000000001690635d3b1d309060a4016020604051808303816000875af115801561056f573d6000803e3d6000fd5b505050506040513d601f19601f820116820180604052508101906105939190610b45565b60405190915081907fcd6e45c8998311cab7e9d4385596cac867e20a0587194b954fa3a731c93ce78b90600090a250505050565b6000606060007f0000000000000000000000000000000000000000000000000000000000000000600154426105fc9190610b5e565b101590506000600260149054906101000a900460ff16600181111561062357610623610885565b6000549015915047151590151583801561063a5750825b80156106435750815b801561064c5750805b60408051808201909152600381526203078360ec1b6020820152909890975095505050505050565b600080828154811061068857610688610b85565b6000918252602090912001546001600160a01b031692915050565b600080548251839083906106b9576106b9610b85565b60200260200101516106cb9190610b9b565b905060008082815481106106e1576106e1610b85565b6000918252602082200154600280546001600160a01b0319166001600160a01b0390921691821790559150604051908082528060200260200182016040528015610735578160200160208202803683370190505b50805161074a9160009160209091019061080b565b506002805460ff60a01b19169055426001556040516001600160a01b038216907f5b690ec4a06fe979403046eaeea5b3ce38524683c3001f662c8b5a829632f7df90600090a26000816001600160a01b03164760405160006040518083038185875af1925050503d80600081146107dd576040519150601f19603f3d011682016040523d82523d6000602084013e6107e2565b606091505b50509050806108045760405163a1d04b3960e01b815260040160405180910390fd5b5050505050565b828054828255906000526020600020908101928215610860579160200282015b8281111561086057825182546001600160a01b0319166001600160a01b0390911617825560209092019160019091019061082b565b5061086c929150610870565b5090565b5b8082111561086c5760008155600101610871565b634e487b7160e01b600052602160045260246000fd5b60208101600283106108bd57634e487b7160e01b600052602160045260246000fd5b91905290565b634e487b7160e01b600052604160045260246000fd5b604051601f8201601f1916810167ffffffffffffffff81118282101715610902576109026108c3565b604052919050565b6000806040838503121561091d57600080fd5b82359150602083013567ffffffffffffffff81111561093b57600080fd5b8301601f8101851361094c57600080fd5b803567ffffffffffffffff811115610966576109666108c3565b8060051b610976602082016108d9565b9182526020818401810192908101908884111561099257600080fd5b6020850194505b838510156109b857843580835260209586019590935090910190610999565b80955050505050509250929050565b600080602083850312156109da57600080fd5b823567ffffffffffffffff8111156109f157600080fd5b8301601f81018513610a0257600080fd5b803567ffffffffffffffff811115610a1957600080fd5b856020828401011115610a2b57600080fd5b6020919091019590945092505050565b600060208284031215610a4d57600080fd5b813567ffffffffffffffff811115610a6457600080fd5b8201601f81018413610a7557600080fd5b803567ffffffffffffffff811115610a8f57610a8f6108c3565b610aa2601f8201601f19166020016108d9565b818152856020838501011115610ab757600080fd5b81602084016020830137600091810160200191909152949350505050565b8215158152604060208201526000825180604084015260005b81811015610b0b5760208186018101516060868401015201610aee565b506000606082850101526060601f19601f8301168401019150509392505050565b600060208284031215610b3e57600080fd5b5035919050565b600060208284031215610b5757600080fd5b5051919050565b81810381811115610b7f57634e487b7160e01b600052601160045260246000fd5b92915050565b634e487b7160e01b600052603260045260246000fd5b600082610bb857634e487b7160e01b600052601260045260246000fd5b50069056fea26469706673582212207c635e5d5ac1594c30a73e60bea9df5af3095f380dcc7da533ca33b19b9699b364736f6c634300081a00330000000000000000000000000000000000000000000000000000000000002eba474e34a077df58807dbe9c96d3c009b23b3c6d0cce433e59bbf5b34f823bc56c000000000000000000000000000000000000000000000000000000000000001e000000000000000000000000000000000000000000000000002386f26fc10000000000000000000000000000000000000000000000000000000000000007a1200000000000000000000000008103b0a8a00be2ddc778e6e7eaa21791cd364625",
        "nonce": "0x12",
        "chainId": "0xaa36a7"
      },
      "additionalContracts": [],
      "isFixedGasLimit": false
    },
    {
      "hash": "0x06af14415cb6dbf078029198ba4bd949af0efc02b2b08ed573ef54c0e0eede67",
      "transactionType": "CALL",
      "contractName": null,
      "contractAddress": "0x8103b0a8a00be2ddc778e6e7eaa21791cd364625",
      "function": "addConsumer(uint64,address)",
      "arguments": [
        "11962",
        "0xA949dbe855C389b34263294384171b35d543FB2C"
      ],
      "transaction": {
        "from": "0xe909c3c8ec96c25dc663b784040c4eb99276e801",
        "to": "0x8103b0a8a00be2ddc778e6e7eaa21791cd364625",
        "gas": "0x21eb0",
        "value": "0x0",
        "input": "0x7341c10c0000000000000000000000000000000000000000000000000000000000002eba000000000000000000000000a949dbe855c389b34263294384171b35d543fb2c",
        "nonce": "0x13",
        "chainId": "0xaa36a7"
      },
      "additionalContracts": [],
      "isFixedGasLimit": false
    }
  ],
  "receipts": [
    {
      "status": "0x1",
      "cumulativeGasUsed": "0xc539ea",
      "logs": [
        {
          "address": "0x8103b0a8a00be2ddc778e6e7eaa21791cd364625",
          "topics": [
            "0x464722b4166576d3dcbba877b999bc35cf911f4eaf434b7eba68fa113951d0bf",
            "0x0000000000000000000000000000000000000000000000000000000000002eba"
          ],
          "data": "0x000000000000000000000000e909c3c8ec96c25dc663b784040c4eb99276e801",
          "blockHash": "0xcd8857e128fe1940afc4ff5ebcf5aa254182d91c84d86fc3229ef4234cc6428f",
          "blockNumber": "0x5e88ab",
          "transactionHash": "0x05408fb78f95da5c51300d6969156994536c610dbe26d85b59aaff5e107ac4d3",
          "transactionIndex": "0x4b",
          "logIndex": "0xce",
          "removed": false
        }
      ],
      "logsBloom": "0x0000000000000000000001000000000000000000000000000000000000000000010000000000000000000000000000000000400000000000000000000000000000000000000000000000000000000000000000000000000000000000000000000000000000000000000000000000004000000000000000000000000000000000000000000c000020000000000000000000000000000000000000000000000000000000000000000000000000000000000000000000000000000000000000000000000000000000200000000000000000000000000000000000000000000000040000000000000000000000000000000000000000000000000000000000000000",
      "type": "0x2",
      "transactionHash": "0x05408fb78f95da5c51300d6969156994536c610dbe26d85b59aaff5e107ac4d3",
      "transactionIndex": "0x4b",
      "blockHash": "0xcd8857e128fe1940afc4ff5ebcf5aa254182d91c84d86fc3229ef4234cc6428f",
      "blockNumber": "0x5e88ab",
      "gasUsed": "0xe98a",
      "effectiveGasPrice": "0x2bf6e1de7",
      "from": "0xe909c3c8ec96c25dc663b784040c4eb99276e801",
      "to": "0x8103b0a8a00be2ddc778e6e7eaa21791cd364625",
      "contractAddress": null
    },
    {
      "status": "0x1",
      "cumulativeGasUsed": "0xeccdab",
      "logs": [
        {
          "address": "0x779877a7b0d9e8603169ddbd7836e478b4624789",
          "topics": [
            "0xddf252ad1be2c89b69c2b068fc378daa952ba7f163c4a11628f55a4df523b3ef",
            "0x000000000000000000000000e909c3c8ec96c25dc663b784040c4eb99276e801",
            "0x0000000000000000000000008103b0a8a00be2ddc778e6e7eaa21791cd364625"
          ],
          "data": "0x00000000000000000000000000000000000000000000000029a2241af62c0000",
          "blockHash": "0x0ed705ea3dce3ba96ea602290f0ffb75bc862a5ed789259cabc6db6f7e0607b3",
          "blockNumber": "0x5e88ac",
          "transactionHash": "0x3162c1f6df4fa0e2860e7938a8fa35802a6d67e7a9096772749a4b799ce982b9",
          "transactionIndex": "0x57",
          "logIndex": "0x12a",
          "removed": false
        },
        {
          "address": "0x779877a7b0d9e8603169ddbd7836e478b4624789",
          "topics": [
            "0xe19260aff97b920c7df27010903aeb9c8d2be5d310a2c67824cf3f15396e4c16",
            "0x000000000000000000000000e909c3c8ec96c25dc663b784040c4eb99276e801",
            "0x0000000000000000000000008103b0a8a00be2ddc778e6e7eaa21791cd364625"
          ],
          "data": "0x00000000000000000000000000000000000000000000000029a2241af62c0000000000000000000000000000000000000000000000000000000000000000004000000000000000000000000000000000000000000000000000000000000000200000000000000000000000000000000000000000000000000000000000002eba",
          "blockHash": "0x0ed705ea3dce3ba96ea602290f0ffb75bc862a5ed789259cabc6db6f7e0607b3",
          "blockNumber": "0x5e88ac",
          "transactionHash": "0x3162c1f6df4fa0e2860e7938a8fa35802a6d67e7a9096772749a4b799ce982b9",
          "transactionIndex": "0x57",
          "logIndex": "0x12b",
          "removed": false
        },
        {
          "address": "0x8103b0a8a00be2ddc778e6e7eaa21791cd364625",
          "topics": [
            "0xd39ec07f4e209f627a4c427971473820dc129761ba28de8906bd56f57101d4f8",
            "0x0000000000000000000000000000000000000000000000000000000000002eba"
          ],
          "data": "0x000000000000000000000000000000000000000000000000000000000000000000000000000000000000000000000000000000000000000029a2241af62c0000",
          "blockHash": "0x0ed705ea3dce3ba96ea602290f0ffb75bc862a5ed789259cabc6db6f7e0607b3",
          "blockNumber": "0x5e88ac",
          "transactionHash": "0x3162c1f6df4fa0e2860e7938a8fa35802a6d67e7a9096772749a4b799ce982b9",
          "transactionIndex": "0x57",
          "logIndex": "0x12c",
          "removed": false
        }
      ],
      "logsBloom": "0x000000140000000000000000000000000000000000000002000000000200000000000000000080000000000000000000000040000000000000000000000000000000000000000000000000080000000000000000000000000000a000000000000000000000000000000000000000004000000000400000000000001000000000000000000c000020000000000000800010000020000000000000000000000000000000000000000000000000000000000000000000000000000400000000000000002002000000000000000000000000000000000000000100000000000000040000000000000000000002000000000000000000000000000000000000000000",
      "type": "0x2",
      "transactionHash": "0x3162c1f6df4fa0e2860e7938a8fa35802a6d67e7a9096772749a4b799ce982b9",
      "transactionIndex": "0x57",
      "blockHash": "0x0ed705ea3dce3ba96ea602290f0ffb75bc862a5ed789259cabc6db6f7e0607b3",
      "blockNumber": "0x5e88ac",
      "gasUsed": "0x12a4a",
      "effectiveGasPrice": "0x2fb751e0b",
      "from": "0xe909c3c8ec96c25dc663b784040c4eb99276e801",
      "to": "0x779877a7b0d9e8603169ddbd7836e478b4624789",
      "contractAddress": null
    },
    {
      "status": "0x1",
      "cumulativeGasUsed": "0xc4db66",
      "logs": [],
      "logsBloom": "0x00000000000000000000000000000000000000000000000000000000000000000000000000000000000000000000000000000000000000000000000000000000000000000000000000000000000000000000000000000000000000000000000000000000000000000000000000000000000000000000000000000000000000000000000000000000000000000000000000000000000000000000000000000000000000000000000000000000000000000000000000000000000000000000000000000000000000000000000000000000000000000000000000000000000000000000000000000000000000000000000000000000000000000000000000000000",
      "type": "0x2",
      "transactionHash": "0x46f70233fd6058310533c7a8af038935fad6a33ed3a1b8edc8b16ff054666eb6",
      "transactionIndex": "0x67",
      "blockHash": "0x11af993df521e8b28828024cea03eb2faeb41147b4c005cadc126db3430eb104",
      "blockNumber": "0x5e88ad",
      "gasUsed": "0xb53bd",
      "effectiveGasPrice": "0x30452ea73",
      "from": "0xe909c3c8ec96c25dc663b784040c4eb99276e801",
      "to": null,
      "contractAddress": "0xa949dbe855c389b34263294384171b35d543fb2c"
    },
    {
      "status": "0x1",
      "cumulativeGasUsed": "0x7ff6bb",
      "logs": [
        {
          "address": "0x8103b0a8a00be2ddc778e6e7eaa21791cd364625",
          "topics": [
            "0x43dc749a04ac8fb825cbd514f7c0e13f13bc6f2ee66043b76629d51776cff8e0",
            "0x0000000000000000000000000000000000000000000000000000000000002eba"
          ],
          "data": "0x000000000000000000000000a949dbe855c389b34263294384171b35d543fb2c",
          "blockHash": "0x0851b74f976c3f80b9719360ce4a7259bb6ac8d7805ac9e59c1a3c2bfe4b1750",
          "blockNumber": "0x5e88ae",
          "transactionHash": "0x06af14415cb6dbf078029198ba4bd949af0efc02b2b08ed573ef54c0e0eede67",
          "transactionIndex": "0x46",
          "logIndex": "0x77",
          "removed": false
        }
      ],
      "logsBloom": "0x0000000000000000000000000000000000000000000000000000000000000000000000000000000000000000000000000000400000000000000000000000000000000000000000000000000000000000000000000000000000000000000000000000000000008000000000000000004000000000000000000000000000000000000000000c000020000000000000000000000000000000000000000000000000000000000000000000000080000000000000000000000000000000000000000000000000000000000000000000000000000000000000000000020000000000040000000000000000000000000000000000000000000000000000000000000000",
      "type": "0x2",
      "transactionHash": "0x06af14415cb6dbf078029198ba4bd949af0efc02b2b08ed573ef54c0e0eede67",
      "transactionIndex": "0x46",
      "blockHash": "0x0851b74f976c3f80b9719360ce4a7259bb6ac8d7805ac9e59c1a3c2bfe4b1750",
      "blockNumber": "0x5e88ae",
      "gasUsed": "0x17312",
      "effectiveGasPrice": "0x2fdcc2d26",
      "from": "0xe909c3c8ec96c25dc663b784040c4eb99276e801",
      "to": "0x8103b0a8a00be2ddc778e6e7eaa21791cd364625",
      "contractAddress": null
    }
  ],
  "libraries": [],
  "pending": [],
  "returns": {
    "0": {
      "internal_type": "contract Raffle",
      "value": "0xA949dbe855C389b34263294384171b35d543FB2C"
    },
    "1": {
      "internal_type": "contract HelperConfig",
      "value": "0xC7f2Cf4845C6db0e1a1e91ED41Bcd0FcC1b0E141"
    }
  },
  "timestamp": 1719461156,
  "chain": 11155111,
  "commit": "be2d56c"
}